{
  "address": "0xA053441DB51404a721AC760172Ca762521C885De",
  "abi": [
    {
      "inputs": [
        {
          "internalType": "string",
          "name": "baseURI",
          "type": "string"
        },
        {
          "internalType": "address",
          "name": "whitelistContract",
          "type": "address"
        }
      ],
      "stateMutability": "nonpayable",
      "type": "constructor"
    },
    {
      "anonymous": false,
      "inputs": [
        {
          "indexed": true,
          "internalType": "address",
          "name": "owner",
          "type": "address"
        },
        {
          "indexed": true,
          "internalType": "address",
          "name": "approved",
          "type": "address"
        },
        {
          "indexed": true,
          "internalType": "uint256",
          "name": "tokenId",
          "type": "uint256"
        }
      ],
      "name": "Approval",
      "type": "event"
    },
    {
      "anonymous": false,
      "inputs": [
        {
          "indexed": true,
          "internalType": "address",
          "name": "owner",
          "type": "address"
        },
        {
          "indexed": true,
          "internalType": "address",
          "name": "operator",
          "type": "address"
        },
        {
          "indexed": false,
          "internalType": "bool",
          "name": "approved",
          "type": "bool"
        }
      ],
      "name": "ApprovalForAll",
      "type": "event"
    },
    {
      "anonymous": false,
      "inputs": [
        {
          "indexed": true,
          "internalType": "address",
          "name": "previousOwner",
          "type": "address"
        },
        {
          "indexed": true,
          "internalType": "address",
          "name": "newOwner",
          "type": "address"
        }
      ],
      "name": "OwnershipTransferred",
      "type": "event"
    },
    {
      "anonymous": false,
      "inputs": [
        {
          "indexed": true,
          "internalType": "address",
          "name": "from",
          "type": "address"
        },
        {
          "indexed": true,
          "internalType": "address",
          "name": "to",
          "type": "address"
        },
        {
          "indexed": true,
          "internalType": "uint256",
          "name": "tokenId",
          "type": "uint256"
        }
      ],
      "name": "Transfer",
      "type": "event"
    },
    {
      "stateMutability": "payable",
      "type": "fallback"
    },
    {
      "inputs": [],
      "name": "_paused",
      "outputs": [
        {
          "internalType": "bool",
          "name": "",
          "type": "bool"
        }
      ],
      "stateMutability": "view",
      "type": "function"
    },
    {
      "inputs": [],
      "name": "_price",
      "outputs": [
        {
          "internalType": "uint256",
          "name": "",
          "type": "uint256"
        }
      ],
      "stateMutability": "view",
      "type": "function"
    },
    {
      "inputs": [
        {
          "internalType": "address",
          "name": "to",
          "type": "address"
        },
        {
          "internalType": "uint256",
          "name": "tokenId",
          "type": "uint256"
        }
      ],
      "name": "approve",
      "outputs": [],
      "stateMutability": "nonpayable",
      "type": "function"
    },
    {
      "inputs": [
        {
          "internalType": "address",
          "name": "owner",
          "type": "address"
        }
      ],
      "name": "balanceOf",
      "outputs": [
        {
          "internalType": "uint256",
          "name": "",
          "type": "uint256"
        }
      ],
      "stateMutability": "view",
      "type": "function"
    },
    {
      "inputs": [
        {
          "internalType": "uint256",
          "name": "tokenId",
          "type": "uint256"
        }
      ],
      "name": "getApproved",
      "outputs": [
        {
          "internalType": "address",
          "name": "",
          "type": "address"
        }
      ],
      "stateMutability": "view",
      "type": "function"
    },
    {
      "inputs": [
        {
          "internalType": "address",
          "name": "owner",
          "type": "address"
        },
        {
          "internalType": "address",
          "name": "operator",
          "type": "address"
        }
      ],
      "name": "isApprovedForAll",
      "outputs": [
        {
          "internalType": "bool",
          "name": "",
          "type": "bool"
        }
      ],
      "stateMutability": "view",
      "type": "function"
    },
    {
      "inputs": [],
      "name": "maxTokenIds",
      "outputs": [
        {
          "internalType": "uint256",
          "name": "",
          "type": "uint256"
        }
      ],
      "stateMutability": "view",
      "type": "function"
    },
    {
      "inputs": [],
      "name": "mint",
      "outputs": [],
      "stateMutability": "payable",
      "type": "function"
    },
    {
      "inputs": [],
      "name": "name",
      "outputs": [
        {
          "internalType": "string",
          "name": "",
          "type": "string"
        }
      ],
      "stateMutability": "view",
      "type": "function"
    },
    {
      "inputs": [],
      "name": "owner",
      "outputs": [
        {
          "internalType": "address",
          "name": "",
          "type": "address"
        }
      ],
      "stateMutability": "view",
      "type": "function"
    },
    {
      "inputs": [
        {
          "internalType": "uint256",
          "name": "tokenId",
          "type": "uint256"
        }
      ],
      "name": "ownerOf",
      "outputs": [
        {
          "internalType": "address",
          "name": "",
          "type": "address"
        }
      ],
      "stateMutability": "view",
      "type": "function"
    },
    {
      "inputs": [],
      "name": "preSaleMint",
      "outputs": [],
      "stateMutability": "payable",
      "type": "function"
    },
    {
      "inputs": [],
      "name": "presaleEnded",
      "outputs": [
        {
          "internalType": "uint256",
          "name": "",
          "type": "uint256"
        }
      ],
      "stateMutability": "view",
      "type": "function"
    },
    {
      "inputs": [],
      "name": "presaleStarted",
      "outputs": [
        {
          "internalType": "bool",
          "name": "",
          "type": "bool"
        }
      ],
      "stateMutability": "view",
      "type": "function"
    },
    {
      "inputs": [],
      "name": "renounceOwnership",
      "outputs": [],
      "stateMutability": "nonpayable",
      "type": "function"
    },
    {
      "inputs": [
        {
          "internalType": "address",
          "name": "from",
          "type": "address"
        },
        {
          "internalType": "address",
          "name": "to",
          "type": "address"
        },
        {
          "internalType": "uint256",
          "name": "tokenId",
          "type": "uint256"
        }
      ],
      "name": "safeTransferFrom",
      "outputs": [],
      "stateMutability": "nonpayable",
      "type": "function"
    },
    {
      "inputs": [
        {
          "internalType": "address",
          "name": "from",
          "type": "address"
        },
        {
          "internalType": "address",
          "name": "to",
          "type": "address"
        },
        {
          "internalType": "uint256",
          "name": "tokenId",
          "type": "uint256"
        },
        {
          "internalType": "bytes",
          "name": "data",
          "type": "bytes"
        }
      ],
      "name": "safeTransferFrom",
      "outputs": [],
      "stateMutability": "nonpayable",
      "type": "function"
    },
    {
      "inputs": [
        {
          "internalType": "address",
          "name": "operator",
          "type": "address"
        },
        {
          "internalType": "bool",
          "name": "approved",
          "type": "bool"
        }
      ],
      "name": "setApprovalForAll",
      "outputs": [],
      "stateMutability": "nonpayable",
      "type": "function"
    },
    {
      "inputs": [
        {
          "internalType": "bool",
          "name": "val",
          "type": "bool"
        }
      ],
      "name": "setPaused",
      "outputs": [],
      "stateMutability": "nonpayable",
      "type": "function"
    },
    {
      "inputs": [],
      "name": "startPresale",
      "outputs": [],
      "stateMutability": "nonpayable",
      "type": "function"
    },
    {
      "inputs": [
        {
          "internalType": "bytes4",
          "name": "interfaceId",
          "type": "bytes4"
        }
      ],
      "name": "supportsInterface",
      "outputs": [
        {
          "internalType": "bool",
          "name": "",
          "type": "bool"
        }
      ],
      "stateMutability": "view",
      "type": "function"
    },
    {
      "inputs": [],
      "name": "symbol",
      "outputs": [
        {
          "internalType": "string",
          "name": "",
          "type": "string"
        }
      ],
      "stateMutability": "view",
      "type": "function"
    },
    {
      "inputs": [
        {
          "internalType": "uint256",
          "name": "index",
          "type": "uint256"
        }
      ],
      "name": "tokenByIndex",
      "outputs": [
        {
          "internalType": "uint256",
          "name": "",
          "type": "uint256"
        }
      ],
      "stateMutability": "view",
      "type": "function"
    },
    {
      "inputs": [],
      "name": "tokenIds",
      "outputs": [
        {
          "internalType": "uint256",
          "name": "",
          "type": "uint256"
        }
      ],
      "stateMutability": "view",
      "type": "function"
    },
    {
      "inputs": [
        {
          "internalType": "address",
          "name": "owner",
          "type": "address"
        },
        {
          "internalType": "uint256",
          "name": "index",
          "type": "uint256"
        }
      ],
      "name": "tokenOfOwnerByIndex",
      "outputs": [
        {
          "internalType": "uint256",
          "name": "",
          "type": "uint256"
        }
      ],
      "stateMutability": "view",
      "type": "function"
    },
    {
      "inputs": [
        {
          "internalType": "uint256",
          "name": "tokenId",
          "type": "uint256"
        }
      ],
      "name": "tokenURI",
      "outputs": [
        {
          "internalType": "string",
          "name": "",
          "type": "string"
        }
      ],
      "stateMutability": "view",
      "type": "function"
    },
    {
      "inputs": [],
      "name": "totalSupply",
      "outputs": [
        {
          "internalType": "uint256",
          "name": "",
          "type": "uint256"
        }
      ],
      "stateMutability": "view",
      "type": "function"
    },
    {
      "inputs": [
        {
          "internalType": "address",
          "name": "from",
          "type": "address"
        },
        {
          "internalType": "address",
          "name": "to",
          "type": "address"
        },
        {
          "internalType": "uint256",
          "name": "tokenId",
          "type": "uint256"
        }
      ],
      "name": "transferFrom",
      "outputs": [],
      "stateMutability": "nonpayable",
      "type": "function"
    },
    {
      "inputs": [
        {
          "internalType": "address",
          "name": "newOwner",
          "type": "address"
        }
      ],
      "name": "transferOwnership",
      "outputs": [],
      "stateMutability": "nonpayable",
      "type": "function"
    },
    {
      "inputs": [],
      "name": "withdraw",
      "outputs": [],
      "stateMutability": "nonpayable",
      "type": "function"
    },
    {
      "stateMutability": "payable",
      "type": "receive"
    }
  ],
  "transactionHash": "0x15c9bc723a5873bc9e157e17225c7cd900818c02cfe46d93022cf4f66a28cbc2",
  "args": [
    "https://nft-collection-sneh1999.vercel.app/api/",
    "0xd5d2f52052f069B0D5EC14A23A8c6FA3C5B8dbAe"
  ],
  "numDeployments": 1,
  "solcInputHash": "455934b43ab1a1f1b945aa8feb5f5336",
  "bytecode": "0x6080604052662386f26fc10000600c556014600e553480156200002157600080fd5b50604051620044c5380380620044c583398181016040528101906200004791906200037c565b6040518060400160405280600b81526020017f43727970746f20446576730000000000000000000000000000000000000000008152506040518060400160405280600281526020017f43440000000000000000000000000000000000000000000000000000000000008152508160009080519060200190620000cb92919062000237565b508060019080519060200190620000e492919062000237565b50505062000107620000fb6200016960201b60201c565b6200017160201b60201c565b81600b90805190602001906200011f92919062000237565b5080601060006101000a81548173ffffffffffffffffffffffffffffffffffffffff021916908373ffffffffffffffffffffffffffffffffffffffff1602179055505050620005b4565b600033905090565b6000600a60009054906101000a900473ffffffffffffffffffffffffffffffffffffffff16905081600a60006101000a81548173ffffffffffffffffffffffffffffffffffffffff021916908373ffffffffffffffffffffffffffffffffffffffff1602179055508173ffffffffffffffffffffffffffffffffffffffff168173ffffffffffffffffffffffffffffffffffffffff167f8be0079c531659141344cd1fd0a4f28419497f9722a3daafe3b4186f6b6457e060405160405180910390a35050565b8280546200024590620004ab565b90600052602060002090601f016020900481019282620002695760008555620002b5565b82601f106200028457805160ff1916838001178555620002b5565b82800160010185558215620002b5579182015b82811115620002b457825182559160200191906001019062000297565b5b509050620002c49190620002c8565b5090565b5b80821115620002e3576000816000905550600101620002c9565b5090565b6000620002fe620002f8846200040b565b620003e2565b9050828152602081018484840111156200031d576200031c6200057a565b5b6200032a84828562000475565b509392505050565b60008151905062000343816200059a565b92915050565b600082601f83011262000361576200036062000575565b5b815162000373848260208601620002e7565b91505092915050565b6000806040838503121562000396576200039562000584565b5b600083015167ffffffffffffffff811115620003b757620003b66200057f565b5b620003c58582860162000349565b9250506020620003d88582860162000332565b9150509250929050565b6000620003ee62000401565b9050620003fc8282620004e1565b919050565b6000604051905090565b600067ffffffffffffffff82111562000429576200042862000546565b5b620004348262000589565b9050602081019050919050565b60006200044e8262000455565b9050919050565b600073ffffffffffffffffffffffffffffffffffffffff82169050919050565b60005b838110156200049557808201518184015260208101905062000478565b83811115620004a5576000848401525b50505050565b60006002820490506001821680620004c457607f821691505b60208210811415620004db57620004da62000517565b5b50919050565b620004ec8262000589565b810181811067ffffffffffffffff821117156200050e576200050d62000546565b5b80604052505050565b7f4e487b7100000000000000000000000000000000000000000000000000000000600052602260045260246000fd5b7f4e487b7100000000000000000000000000000000000000000000000000000000600052604160045260246000fd5b600080fd5b600080fd5b600080fd5b600080fd5b6000601f19601f8301169050919050565b620005a58162000441565b8114620005b157600080fd5b50565b613f0180620005c46000396000f3fe6080604052600436106101d15760003560e01c80634f6ccce7116100f757806395d89b4111610095578063c87b56dd11610064578063c87b56dd1461061a578063e580b2b014610657578063e985e9c514610682578063f2fde38b146106bf576101d8565b806395d89b4114610593578063a22cb465146105be578063ace6cf11146105e7578063b88d4fde146105f1576101d8565b806370a08231116100d157806370a08231146104e9578063714cff5614610526578063715018a6146105515780638da5cb5b14610568576101d8565b80634f6ccce7146104445780635f769621146104815780636352211e146104ac576101d8565b806316c38b3c1161016f57806323b872dd1161013e57806323b872dd1461039e5780632f745c59146103c75780633ccfd60b1461040457806342842e0e1461041b576101d8565b806316c38b3c146102f457806316c61ccc1461031d57806318160ddd14610348578063235b6ea114610373576101d8565b806306fdde03116101ab57806306fdde0314610259578063081812fc14610284578063095ea7b3146102c15780631249c58b146102ea576101d8565b806301ffc9a7146101da57806304549d6f1461021757806304c98b2b14610242576101d8565b366101d857005b005b3480156101e657600080fd5b5061020160048036038101906101fc9190612d1e565b6106e8565b60405161020e919061325d565b60405180910390f35b34801561022357600080fd5b5061022c610762565b604051610239919061325d565b60405180910390f35b34801561024e57600080fd5b50610257610775565b005b34801561026557600080fd5b5061026e6107a6565b60405161027b9190613278565b60405180910390f35b34801561029057600080fd5b506102ab60048036038101906102a69190612d78565b610838565b6040516102b891906131f6565b60405180910390f35b3480156102cd57600080fd5b506102e860048036038101906102e39190612c84565b61087e565b005b6102f2610996565b005b34801561030057600080fd5b5061031b60048036038101906103169190612cc4565b610af5565b005b34801561032957600080fd5b50610332610b1a565b60405161033f919061325d565b60405180910390f35b34801561035457600080fd5b5061035d610b2d565b60405161036a919061357a565b60405180910390f35b34801561037f57600080fd5b50610388610b3a565b604051610395919061357a565b60405180910390f35b3480156103aa57600080fd5b506103c560048036038101906103c09190612b6e565b610b40565b005b3480156103d357600080fd5b506103ee60048036038101906103e99190612c84565b610ba0565b6040516103fb919061357a565b60405180910390f35b34801561041057600080fd5b50610419610c45565b005b34801561042757600080fd5b50610442600480360381019061043d9190612b6e565b610d0f565b005b34801561045057600080fd5b5061046b60048036038101906104669190612d78565b610d2f565b604051610478919061357a565b60405180910390f35b34801561048d57600080fd5b50610496610da0565b6040516104a3919061357a565b60405180910390f35b3480156104b857600080fd5b506104d360048036038101906104ce9190612d78565b610da6565b6040516104e091906131f6565b60405180910390f35b3480156104f557600080fd5b50610510600480360381019061050b9190612b01565b610e2d565b60405161051d919061357a565b60405180910390f35b34801561053257600080fd5b5061053b610ee5565b604051610548919061357a565b60405180910390f35b34801561055d57600080fd5b50610566610eeb565b005b34801561057457600080fd5b5061057d610eff565b60405161058a91906131f6565b60405180910390f35b34801561059f57600080fd5b506105a8610f29565b6040516105b59190613278565b60405180910390f35b3480156105ca57600080fd5b506105e560048036038101906105e09190612c44565b610fbb565b005b6105ef610fd1565b005b3480156105fd57600080fd5b5061061860048036038101906106139190612bc1565b611219565b005b34801561062657600080fd5b50610641600480360381019061063c9190612d78565b61127b565b60405161064e9190613278565b60405180910390f35b34801561066357600080fd5b5061066c6112e3565b604051610679919061357a565b60405180910390f35b34801561068e57600080fd5b506106a960048036038101906106a49190612b2e565b6112e9565b6040516106b6919061325d565b60405180910390f35b3480156106cb57600080fd5b506106e660048036038101906106e19190612b01565b61137d565b005b60007f780e9d63000000000000000000000000000000000000000000000000000000007bffffffffffffffffffffffffffffffffffffffffffffffffffffffff1916827bffffffffffffffffffffffffffffffffffffffffffffffffffffffff1916148061075b575061075a82611401565b5b9050919050565b601060149054906101000a900460ff1681565b6001601060146101000a81548160ff02191690831515021790555061012c4261079e9190613639565b601181905550565b6060600080546107b590613779565b80601f01602080910402602001604051908101604052809291908181526020018280546107e190613779565b801561082e5780601f106108035761010080835404028352916020019161082e565b820191906000526020600020905b81548152906001019060200180831161081157829003601f168201915b5050505050905090565b6000610843826114e3565b6004600083815260200190815260200160002060009054906101000a900473ffffffffffffffffffffffffffffffffffffffff169050919050565b600061088982610da6565b90508073ffffffffffffffffffffffffffffffffffffffff168373ffffffffffffffffffffffffffffffffffffffff1614156108fa576040517f08c379a00000000000000000000000000000000000000000000000000000000081526004016108f1906134da565b60405180910390fd5b8073ffffffffffffffffffffffffffffffffffffffff1661091961152e565b73ffffffffffffffffffffffffffffffffffffffff16148061094857506109478161094261152e565b6112e9565b5b610987576040517f08c379a000000000000000000000000000000000000000000000000000000000815260040161097e906134fa565b60405180910390fd5b6109918383611536565b505050565b600d60009054906101000a900460ff16156109e6576040517f08c379a00000000000000000000000000000000000000000000000000000000081526004016109dd9061349a565b60405180910390fd5b601060149054906101000a900460ff168015610a0457506011544210155b610a43576040517f08c379a0000000000000000000000000000000000000000000000000000000008152600401610a3a9061355a565b60405180910390fd5b600e54600f5410610a89576040517f08c379a0000000000000000000000000000000000000000000000000000000008152600401610a809061343a565b60405180910390fd5b600c543411610acd576040517f08c379a0000000000000000000000000000000000000000000000000000000008152600401610ac49061333a565b60405180910390fd5b6001600f6000828254610ae09190613639565b92505081905550610af333600f546115ef565b565b610afd61160d565b80600d60006101000a81548160ff02191690831515021790555050565b600d60009054906101000a900460ff1681565b6000600880549050905090565b600c5481565b610b51610b4b61152e565b8261168b565b610b90576040517f08c379a0000000000000000000000000000000000000000000000000000000008152600401610b87906132ba565b60405180910390fd5b610b9b838383611720565b505050565b6000610bab83610e2d565b8210610bec576040517f08c379a0000000000000000000000000000000000000000000000000000000008152600401610be3906132da565b60405180910390fd5b600660008473ffffffffffffffffffffffffffffffffffffffff1673ffffffffffffffffffffffffffffffffffffffff168152602001908152602001600020600083815260200190815260200160002054905092915050565b610c4d61160d565b6000610c57610eff565b9050600047905060008273ffffffffffffffffffffffffffffffffffffffff1682604051610c84906131e1565b60006040518083038185875af1925050503d8060008114610cc1576040519150601f19603f3d011682016040523d82523d6000602084013e610cc6565b606091505b5050905080610d0a576040517f08c379a0000000000000000000000000000000000000000000000000000000008152600401610d01906133ba565b60405180910390fd5b505050565b610d2a83838360405180602001604052806000815250611219565b505050565b6000610d39610b2d565b8210610d7a576040517f08c379a0000000000000000000000000000000000000000000000000000000008152600401610d719061351a565b60405180910390fd5b60088281548110610d8e57610d8d613898565b5b90600052602060002001549050919050565b600e5481565b600080610db283611a1a565b9050600073ffffffffffffffffffffffffffffffffffffffff168173ffffffffffffffffffffffffffffffffffffffff161415610e24576040517f08c379a0000000000000000000000000000000000000000000000000000000008152600401610e1b906134ba565b60405180910390fd5b80915050919050565b60008073ffffffffffffffffffffffffffffffffffffffff168273ffffffffffffffffffffffffffffffffffffffff161415610e9e576040517f08c379a0000000000000000000000000000000000000000000000000000000008152600401610e959061341a565b60405180910390fd5b600360008373ffffffffffffffffffffffffffffffffffffffff1673ffffffffffffffffffffffffffffffffffffffff168152602001908152602001600020549050919050565b600f5481565b610ef361160d565b610efd6000611a57565b565b6000600a60009054906101000a900473ffffffffffffffffffffffffffffffffffffffff16905090565b606060018054610f3890613779565b80601f0160208091040260200160405190810160405280929190818152602001828054610f6490613779565b8015610fb15780601f10610f8657610100808354040283529160200191610fb1565b820191906000526020600020905b815481529060010190602001808311610f9457829003601f168201915b5050505050905090565b610fcd610fc661152e565b8383611b1d565b5050565b600d60009054906101000a900460ff1615611021576040517f08c379a00000000000000000000000000000000000000000000000000000000081526004016110189061349a565b60405180910390fd5b601060149054906101000a900460ff16801561103e575060115442105b61107d576040517f08c379a00000000000000000000000000000000000000000000000000000000081526004016110749061339a565b60405180910390fd5b601060009054906101000a900473ffffffffffffffffffffffffffffffffffffffff1673ffffffffffffffffffffffffffffffffffffffff1663583a1a0b336040518263ffffffff1660e01b81526004016110d891906131f6565b60206040518083038186803b1580156110f057600080fd5b505afa158015611104573d6000803e3d6000fd5b505050506040513d601f19601f820116820180604052508101906111289190612cf1565b611167576040517f08c379a000000000000000000000000000000000000000000000000000000000815260040161115e9061329a565b60405180910390fd5b600e54600f54106111ad576040517f08c379a00000000000000000000000000000000000000000000000000000000081526004016111a49061343a565b60405180910390fd5b600c5434116111f1576040517f08c379a00000000000000000000000000000000000000000000000000000000081526004016111e89061333a565b60405180910390fd5b6001600f60008282546112049190613639565b9250508190555061121733600f546115ef565b565b61122a61122461152e565b8361168b565b611269576040517f08c379a0000000000000000000000000000000000000000000000000000000008152600401611260906132ba565b60405180910390fd5b61127584848484611c8a565b50505050565b6060611286826114e3565b6000611290611ce6565b905060008151116112b057604051806020016040528060008152506112db565b806112ba84611d78565b6040516020016112cb9291906131bd565b6040516020818303038152906040525b915050919050565b60115481565b6000600560008473ffffffffffffffffffffffffffffffffffffffff1673ffffffffffffffffffffffffffffffffffffffff16815260200190815260200160002060008373ffffffffffffffffffffffffffffffffffffffff1673ffffffffffffffffffffffffffffffffffffffff16815260200190815260200160002060009054906101000a900460ff16905092915050565b61138561160d565b600073ffffffffffffffffffffffffffffffffffffffff168173ffffffffffffffffffffffffffffffffffffffff1614156113f5576040517f08c379a00000000000000000000000000000000000000000000000000000000081526004016113ec9061331a565b60405180910390fd5b6113fe81611a57565b50565b60007f80ac58cd000000000000000000000000000000000000000000000000000000007bffffffffffffffffffffffffffffffffffffffffffffffffffffffff1916827bffffffffffffffffffffffffffffffffffffffffffffffffffffffff191614806114cc57507f5b5e139f000000000000000000000000000000000000000000000000000000007bffffffffffffffffffffffffffffffffffffffffffffffffffffffff1916827bffffffffffffffffffffffffffffffffffffffffffffffffffffffff1916145b806114dc57506114db82611e50565b5b9050919050565b6114ec81611eba565b61152b576040517f08c379a0000000000000000000000000000000000000000000000000000000008152600401611522906134ba565b60405180910390fd5b50565b600033905090565b816004600083815260200190815260200160002060006101000a81548173ffffffffffffffffffffffffffffffffffffffff021916908373ffffffffffffffffffffffffffffffffffffffff160217905550808273ffffffffffffffffffffffffffffffffffffffff166115a983610da6565b73ffffffffffffffffffffffffffffffffffffffff167f8c5be1e5ebec7d5bd14f71427d1e84f3dd0314c0f7b2291e5b200ac8c7c3b92560405160405180910390a45050565b611609828260405180602001604052806000815250611efb565b5050565b61161561152e565b73ffffffffffffffffffffffffffffffffffffffff16611633610eff565b73ffffffffffffffffffffffffffffffffffffffff1614611689576040517f08c379a00000000000000000000000000000000000000000000000000000000081526004016116809061347a565b60405180910390fd5b565b60008061169783610da6565b90508073ffffffffffffffffffffffffffffffffffffffff168473ffffffffffffffffffffffffffffffffffffffff1614806116d957506116d881856112e9565b5b8061171757508373ffffffffffffffffffffffffffffffffffffffff166116ff84610838565b73ffffffffffffffffffffffffffffffffffffffff16145b91505092915050565b8273ffffffffffffffffffffffffffffffffffffffff1661174082610da6565b73ffffffffffffffffffffffffffffffffffffffff1614611796576040517f08c379a000000000000000000000000000000000000000000000000000000000815260040161178d9061335a565b60405180910390fd5b600073ffffffffffffffffffffffffffffffffffffffff168273ffffffffffffffffffffffffffffffffffffffff161415611806576040517f08c379a00000000000000000000000000000000000000000000000000000000081526004016117fd906133da565b60405180910390fd5b6118138383836001611f56565b8273ffffffffffffffffffffffffffffffffffffffff1661183382610da6565b73ffffffffffffffffffffffffffffffffffffffff1614611889576040517f08c379a00000000000000000000000000000000000000000000000000000000081526004016118809061335a565b60405180910390fd5b6004600082815260200190815260200160002060006101000a81549073ffffffffffffffffffffffffffffffffffffffff02191690556001600360008573ffffffffffffffffffffffffffffffffffffffff1673ffffffffffffffffffffffffffffffffffffffff168152602001908152602001600020600082825403925050819055506001600360008473ffffffffffffffffffffffffffffffffffffffff1673ffffffffffffffffffffffffffffffffffffffff16815260200190815260200160002060008282540192505081905550816002600083815260200190815260200160002060006101000a81548173ffffffffffffffffffffffffffffffffffffffff021916908373ffffffffffffffffffffffffffffffffffffffff160217905550808273ffffffffffffffffffffffffffffffffffffffff168473ffffffffffffffffffffffffffffffffffffffff167fddf252ad1be2c89b69c2b068fc378daa952ba7f163c4a11628f55a4df523b3ef60405160405180910390a4611a1583838360016120b6565b505050565b60006002600083815260200190815260200160002060009054906101000a900473ffffffffffffffffffffffffffffffffffffffff169050919050565b6000600a60009054906101000a900473ffffffffffffffffffffffffffffffffffffffff16905081600a60006101000a81548173ffffffffffffffffffffffffffffffffffffffff021916908373ffffffffffffffffffffffffffffffffffffffff1602179055508173ffffffffffffffffffffffffffffffffffffffff168173ffffffffffffffffffffffffffffffffffffffff167f8be0079c531659141344cd1fd0a4f28419497f9722a3daafe3b4186f6b6457e060405160405180910390a35050565b8173ffffffffffffffffffffffffffffffffffffffff168373ffffffffffffffffffffffffffffffffffffffff161415611b8c576040517f08c379a0000000000000000000000000000000000000000000000000000000008152600401611b83906133fa565b60405180910390fd5b80600560008573ffffffffffffffffffffffffffffffffffffffff1673ffffffffffffffffffffffffffffffffffffffff16815260200190815260200160002060008473ffffffffffffffffffffffffffffffffffffffff1673ffffffffffffffffffffffffffffffffffffffff16815260200190815260200160002060006101000a81548160ff0219169083151502179055508173ffffffffffffffffffffffffffffffffffffffff168373ffffffffffffffffffffffffffffffffffffffff167f17307eab39ab6107e8899845ad3d59bd9653f200f220920489ca2b5937696c3183604051611c7d919061325d565b60405180910390a3505050565b611c95848484611720565b611ca1848484846120bc565b611ce0576040517f08c379a0000000000000000000000000000000000000000000000000000000008152600401611cd7906132fa565b60405180910390fd5b50505050565b6060600b8054611cf590613779565b80601f0160208091040260200160405190810160405280929190818152602001828054611d2190613779565b8015611d6e5780601f10611d4357610100808354040283529160200191611d6e565b820191906000526020600020905b815481529060010190602001808311611d5157829003601f168201915b5050505050905090565b606060006001611d8784612253565b01905060008167ffffffffffffffff811115611da657611da56138c7565b5b6040519080825280601f01601f191660200182016040528015611dd85781602001600182028036833780820191505090505b509050600082602001820190505b600115611e45578080600190039150507f3031323334353637383961626364656600000000000000000000000000000000600a86061a8153600a8581611e2f57611e2e61380b565b5b0494506000851415611e4057611e45565b611de6565b819350505050919050565b60007f01ffc9a7000000000000000000000000000000000000000000000000000000007bffffffffffffffffffffffffffffffffffffffffffffffffffffffff1916827bffffffffffffffffffffffffffffffffffffffffffffffffffffffff1916149050919050565b60008073ffffffffffffffffffffffffffffffffffffffff16611edc83611a1a565b73ffffffffffffffffffffffffffffffffffffffff1614159050919050565b611f0583836123a6565b611f1260008484846120bc565b611f51576040517f08c379a0000000000000000000000000000000000000000000000000000000008152600401611f48906132fa565b60405180910390fd5b505050565b611f62848484846125c4565b6001811115611fa6576040517f08c379a0000000000000000000000000000000000000000000000000000000008152600401611f9d9061353a565b60405180910390fd5b6000829050600073ffffffffffffffffffffffffffffffffffffffff168573ffffffffffffffffffffffffffffffffffffffff161415611fee57611fe9816126ea565b61202d565b8373ffffffffffffffffffffffffffffffffffffffff168573ffffffffffffffffffffffffffffffffffffffff161461202c5761202b8582612733565b5b5b600073ffffffffffffffffffffffffffffffffffffffff168473ffffffffffffffffffffffffffffffffffffffff1614156120705761206b816128a0565b6120af565b8473ffffffffffffffffffffffffffffffffffffffff168473ffffffffffffffffffffffffffffffffffffffff16146120ae576120ad8482612971565b5b5b5050505050565b50505050565b60006120dd8473ffffffffffffffffffffffffffffffffffffffff166129f0565b15612246578373ffffffffffffffffffffffffffffffffffffffff1663150b7a0261210661152e565b8786866040518563ffffffff1660e01b81526004016121289493929190613211565b602060405180830381600087803b15801561214257600080fd5b505af192505050801561217357506040513d601f19601f820116820180604052508101906121709190612d4b565b60015b6121f6573d80600081146121a3576040519150601f19603f3d011682016040523d82523d6000602084013e6121a8565b606091505b506000815114156121ee576040517f08c379a00000000000000000000000000000000000000000000000000000000081526004016121e5906132fa565b60405180910390fd5b805181602001fd5b63150b7a0260e01b7bffffffffffffffffffffffffffffffffffffffffffffffffffffffff1916817bffffffffffffffffffffffffffffffffffffffffffffffffffffffff19161491505061224b565b600190505b949350505050565b600080600090507a184f03e93ff9f4daa797ed6e38ed64bf6a1f01000000000000000083106122b1577a184f03e93ff9f4daa797ed6e38ed64bf6a1f01000000000000000083816122a7576122a661380b565b5b0492506040810190505b6d04ee2d6d415b85acef810000000083106122ee576d04ee2d6d415b85acef810000000083816122e4576122e361380b565b5b0492506020810190505b662386f26fc10000831061231d57662386f26fc1000083816123135761231261380b565b5b0492506010810190505b6305f5e1008310612346576305f5e100838161233c5761233b61380b565b5b0492506008810190505b612710831061236b5761271083816123615761236061380b565b5b0492506004810190505b6064831061238e57606483816123845761238361380b565b5b0492506002810190505b600a831061239d576001810190505b80915050919050565b600073ffffffffffffffffffffffffffffffffffffffff168273ffffffffffffffffffffffffffffffffffffffff161415612416576040517f08c379a000000000000000000000000000000000000000000000000000000000815260040161240d9061345a565b60405180910390fd5b61241f81611eba565b1561245f576040517f08c379a00000000000000000000000000000000000000000000000000000000081526004016124569061337a565b60405180910390fd5b61246d600083836001611f56565b61247681611eba565b156124b6576040517f08c379a00000000000000000000000000000000000000000000000000000000081526004016124ad9061337a565b60405180910390fd5b6001600360008473ffffffffffffffffffffffffffffffffffffffff1673ffffffffffffffffffffffffffffffffffffffff16815260200190815260200160002060008282540192505081905550816002600083815260200190815260200160002060006101000a81548173ffffffffffffffffffffffffffffffffffffffff021916908373ffffffffffffffffffffffffffffffffffffffff160217905550808273ffffffffffffffffffffffffffffffffffffffff16600073ffffffffffffffffffffffffffffffffffffffff167fddf252ad1be2c89b69c2b068fc378daa952ba7f163c4a11628f55a4df523b3ef60405160405180910390a46125c06000838360016120b6565b5050565b60018111156126e457600073ffffffffffffffffffffffffffffffffffffffff168473ffffffffffffffffffffffffffffffffffffffff16146126585780600360008673ffffffffffffffffffffffffffffffffffffffff1673ffffffffffffffffffffffffffffffffffffffff1681526020019081526020016000206000828254612650919061368f565b925050819055505b600073ffffffffffffffffffffffffffffffffffffffff168373ffffffffffffffffffffffffffffffffffffffff16146126e35780600360008573ffffffffffffffffffffffffffffffffffffffff1673ffffffffffffffffffffffffffffffffffffffff16815260200190815260200160002060008282546126db9190613639565b925050819055505b5b50505050565b6008805490506009600083815260200190815260200160002081905550600881908060018154018082558091505060019003906000526020600020016000909190919091505550565b6000600161274084610e2d565b61274a919061368f565b905060006007600084815260200190815260200160002054905081811461282f576000600660008673ffffffffffffffffffffffffffffffffffffffff1673ffffffffffffffffffffffffffffffffffffffff168152602001908152602001600020600084815260200190815260200160002054905080600660008773ffffffffffffffffffffffffffffffffffffffff1673ffffffffffffffffffffffffffffffffffffffff168152602001908152602001600020600084815260200190815260200160002081905550816007600083815260200190815260200160002081905550505b6007600084815260200190815260200160002060009055600660008573ffffffffffffffffffffffffffffffffffffffff1673ffffffffffffffffffffffffffffffffffffffff16815260200190815260200160002060008381526020019081526020016000206000905550505050565b600060016008805490506128b4919061368f565b90506000600960008481526020019081526020016000205490506000600883815481106128e4576128e3613898565b5b90600052602060002001549050806008838154811061290657612905613898565b5b90600052602060002001819055508160096000838152602001908152602001600020819055506009600085815260200190815260200160002060009055600880548061295557612954613869565b5b6001900381819060005260206000200160009055905550505050565b600061297c83610e2d565b905081600660008573ffffffffffffffffffffffffffffffffffffffff1673ffffffffffffffffffffffffffffffffffffffff168152602001908152602001600020600083815260200190815260200160002081905550806007600084815260200190815260200160002081905550505050565b6000808273ffffffffffffffffffffffffffffffffffffffff163b119050919050565b6000612a26612a21846135ba565b613595565b905082815260208101848484011115612a4257612a416138fb565b5b612a4d848285613737565b509392505050565b600081359050612a6481613e6f565b92915050565b600081359050612a7981613e86565b92915050565b600081519050612a8e81613e86565b92915050565b600081359050612aa381613e9d565b92915050565b600081519050612ab881613e9d565b92915050565b600082601f830112612ad357612ad26138f6565b5b8135612ae3848260208601612a13565b91505092915050565b600081359050612afb81613eb4565b92915050565b600060208284031215612b1757612b16613905565b5b6000612b2584828501612a55565b91505092915050565b60008060408385031215612b4557612b44613905565b5b6000612b5385828601612a55565b9250506020612b6485828601612a55565b9150509250929050565b600080600060608486031215612b8757612b86613905565b5b6000612b9586828701612a55565b9350506020612ba686828701612a55565b9250506040612bb786828701612aec565b9150509250925092565b60008060008060808587031215612bdb57612bda613905565b5b6000612be987828801612a55565b9450506020612bfa87828801612a55565b9350506040612c0b87828801612aec565b925050606085013567ffffffffffffffff811115612c2c57612c2b613900565b5b612c3887828801612abe565b91505092959194509250565b60008060408385031215612c5b57612c5a613905565b5b6000612c6985828601612a55565b9250506020612c7a85828601612a6a565b9150509250929050565b60008060408385031215612c9b57612c9a613905565b5b6000612ca985828601612a55565b9250506020612cba85828601612aec565b9150509250929050565b600060208284031215612cda57612cd9613905565b5b6000612ce884828501612a6a565b91505092915050565b600060208284031215612d0757612d06613905565b5b6000612d1584828501612a7f565b91505092915050565b600060208284031215612d3457612d33613905565b5b6000612d4284828501612a94565b91505092915050565b600060208284031215612d6157612d60613905565b5b6000612d6f84828501612aa9565b91505092915050565b600060208284031215612d8e57612d8d613905565b5b6000612d9c84828501612aec565b91505092915050565b612dae816136c3565b82525050565b612dbd816136d5565b82525050565b6000612dce826135eb565b612dd88185613601565b9350612de8818560208601613746565b612df18161390a565b840191505092915050565b6000612e07826135f6565b612e11818561361d565b9350612e21818560208601613746565b612e2a8161390a565b840191505092915050565b6000612e40826135f6565b612e4a818561362e565b9350612e5a818560208601613746565b80840191505092915050565b6000612e73601f8361361d565b9150612e7e8261391b565b602082019050919050565b6000612e96602d8361361d565b9150612ea182613944565b604082019050919050565b6000612eb9602b8361361d565b9150612ec482613993565b604082019050919050565b6000612edc60328361361d565b9150612ee7826139e2565b604082019050919050565b6000612eff60268361361d565b9150612f0a82613a31565b604082019050919050565b6000612f2260188361361d565b9150612f2d82613a80565b602082019050919050565b6000612f4560258361361d565b9150612f5082613aa9565b604082019050919050565b6000612f68601c8361361d565b9150612f7382613af8565b602082019050919050565b6000612f8b60168361361d565b9150612f9682613b21565b602082019050919050565b6000612fae60148361361d565b9150612fb982613b4a565b602082019050919050565b6000612fd160248361361d565b9150612fdc82613b73565b604082019050919050565b6000612ff460198361361d565b9150612fff82613bc2565b602082019050919050565b600061301760298361361d565b915061302282613beb565b604082019050919050565b600061303a60118361361d565b915061304582613c3a565b602082019050919050565b600061305d60208361361d565b915061306882613c63565b602082019050919050565b600061308060208361361d565b915061308b82613c8c565b602082019050919050565b60006130a360198361361d565b91506130ae82613cb5565b602082019050919050565b60006130c660188361361d565b91506130d182613cde565b602082019050919050565b60006130e960218361361d565b91506130f482613d07565b604082019050919050565b600061310c600083613612565b915061311782613d56565b600082019050919050565b600061312f603d8361361d565b915061313a82613d59565b604082019050919050565b6000613152602c8361361d565b915061315d82613da8565b604082019050919050565b600061317560358361361d565b915061318082613df7565b604082019050919050565b600061319860198361361d565b91506131a382613e46565b602082019050919050565b6131b78161372d565b82525050565b60006131c98285612e35565b91506131d58284612e35565b91508190509392505050565b60006131ec826130ff565b9150819050919050565b600060208201905061320b6000830184612da5565b92915050565b60006080820190506132266000830187612da5565b6132336020830186612da5565b61324060408301856131ae565b81810360608301526132528184612dc3565b905095945050505050565b60006020820190506132726000830184612db4565b92915050565b600060208201905081810360008301526132928184612dfc565b905092915050565b600060208201905081810360008301526132b381612e66565b9050919050565b600060208201905081810360008301526132d381612e89565b9050919050565b600060208201905081810360008301526132f381612eac565b9050919050565b6000602082019050818103600083015261331381612ecf565b9050919050565b6000602082019050818103600083015261333381612ef2565b9050919050565b6000602082019050818103600083015261335381612f15565b9050919050565b6000602082019050818103600083015261337381612f38565b9050919050565b6000602082019050818103600083015261339381612f5b565b9050919050565b600060208201905081810360008301526133b381612f7e565b9050919050565b600060208201905081810360008301526133d381612fa1565b9050919050565b600060208201905081810360008301526133f381612fc4565b9050919050565b6000602082019050818103600083015261341381612fe7565b9050919050565b600060208201905081810360008301526134338161300a565b9050919050565b600060208201905081810360008301526134538161302d565b9050919050565b6000602082019050818103600083015261347381613050565b9050919050565b6000602082019050818103600083015261349381613073565b9050919050565b600060208201905081810360008301526134b381613096565b9050919050565b600060208201905081810360008301526134d3816130b9565b9050919050565b600060208201905081810360008301526134f3816130dc565b9050919050565b6000602082019050818103600083015261351381613122565b9050919050565b6000602082019050818103600083015261353381613145565b9050919050565b6000602082019050818103600083015261355381613168565b9050919050565b600060208201905081810360008301526135738161318b565b9050919050565b600060208201905061358f60008301846131ae565b92915050565b600061359f6135b0565b90506135ab82826137ab565b919050565b6000604051905090565b600067ffffffffffffffff8211156135d5576135d46138c7565b5b6135de8261390a565b9050602081019050919050565b600081519050919050565b600081519050919050565b600082825260208201905092915050565b600081905092915050565b600082825260208201905092915050565b600081905092915050565b60006136448261372d565b915061364f8361372d565b9250827fffffffffffffffffffffffffffffffffffffffffffffffffffffffffffffffff03821115613684576136836137dc565b5b828201905092915050565b600061369a8261372d565b91506136a58361372d565b9250828210156136b8576136b76137dc565b5b828203905092915050565b60006136ce8261370d565b9050919050565b60008115159050919050565b60007fffffffff0000000000000000000000000000000000000000000000000000000082169050919050565b600073ffffffffffffffffffffffffffffffffffffffff82169050919050565b6000819050919050565b82818337600083830152505050565b60005b83811015613764578082015181840152602081019050613749565b83811115613773576000848401525b50505050565b6000600282049050600182168061379157607f821691505b602082108114156137a5576137a461383a565b5b50919050565b6137b48261390a565b810181811067ffffffffffffffff821117156137d3576137d26138c7565b5b80604052505050565b7f4e487b7100000000000000000000000000000000000000000000000000000000600052601160045260246000fd5b7f4e487b7100000000000000000000000000000000000000000000000000000000600052601260045260246000fd5b7f4e487b7100000000000000000000000000000000000000000000000000000000600052602260045260246000fd5b7f4e487b7100000000000000000000000000000000000000000000000000000000600052603160045260246000fd5b7f4e487b7100000000000000000000000000000000000000000000000000000000600052603260045260246000fd5b7f4e487b7100000000000000000000000000000000000000000000000000000000600052604160045260246000fd5b600080fd5b600080fd5b600080fd5b600080fd5b6000601f19601f8301169050919050565b7f596f7520617265206e6f7420612070617274206f662077686974656c69737400600082015250565b7f4552433732313a2063616c6c6572206973206e6f7420746f6b656e206f776e6560008201527f72206f7220617070726f76656400000000000000000000000000000000000000602082015250565b7f455243373231456e756d657261626c653a206f776e657220696e646578206f7560008201527f74206f6620626f756e6473000000000000000000000000000000000000000000602082015250565b7f4552433732313a207472616e7366657220746f206e6f6e20455243373231526560008201527f63656976657220696d706c656d656e7465720000000000000000000000000000602082015250565b7f4f776e61626c653a206e6577206f776e657220697320746865207a65726f206160008201527f6464726573730000000000000000000000000000000000000000000000000000602082015250565b7f45746865722073656e74206973206e6f7420656e6f7567680000000000000000600082015250565b7f4552433732313a207472616e736665722066726f6d20696e636f72726563742060008201527f6f776e6572000000000000000000000000000000000000000000000000000000602082015250565b7f4552433732313a20746f6b656e20616c7265616479206d696e74656400000000600082015250565b7f50726573616c65206973206e6f742072756e6e696e6700000000000000000000600082015250565b7f4661696c656420746f2073656e64204574686572000000000000000000000000600082015250565b7f4552433732313a207472616e7366657220746f20746865207a65726f2061646460008201527f7265737300000000000000000000000000000000000000000000000000000000602082015250565b7f4552433732313a20617070726f766520746f2063616c6c657200000000000000600082015250565b7f4552433732313a2061646472657373207a65726f206973206e6f74206120766160008201527f6c6964206f776e65720000000000000000000000000000000000000000000000602082015250565b7f4e6f206d6f7265204e465473206c656674000000000000000000000000000000600082015250565b7f4552433732313a206d696e7420746f20746865207a65726f2061646472657373600082015250565b7f4f776e61626c653a2063616c6c6572206973206e6f7420746865206f776e6572600082015250565b7f436f6e74726163742063757272656e746c792070617573656400000000000000600082015250565b7f4552433732313a20696e76616c696420746f6b656e2049440000000000000000600082015250565b7f4552433732313a20617070726f76616c20746f2063757272656e74206f776e6560008201527f7200000000000000000000000000000000000000000000000000000000000000602082015250565b50565b7f4552433732313a20617070726f76652063616c6c6572206973206e6f7420746f60008201527f6b656e206f776e6572206f7220617070726f76656420666f7220616c6c000000602082015250565b7f455243373231456e756d657261626c653a20676c6f62616c20696e646578206f60008201527f7574206f6620626f756e64730000000000000000000000000000000000000000602082015250565b7f455243373231456e756d657261626c653a20636f6e736563757469766520747260008201527f616e7366657273206e6f7420737570706f727465640000000000000000000000602082015250565b7f50726573616c6520686173206e6f7420656e6465642079657400000000000000600082015250565b613e78816136c3565b8114613e8357600080fd5b50565b613e8f816136d5565b8114613e9a57600080fd5b50565b613ea6816136e1565b8114613eb157600080fd5b50565b613ebd8161372d565b8114613ec857600080fd5b5056fea2646970667358221220188fc1aaadf721d6150ec79cc50bd869ba6c05e6693a55f0f696d3433f8b158964736f6c63430008070033",
  "devdoc": {
    "kind": "dev",
    "methods": {
      "approve(address,uint256)": {
        "details": "See {IERC721-approve}."
      },
      "balanceOf(address)": {
        "details": "See {IERC721-balanceOf}."
      },
      "getApproved(uint256)": {
        "details": "See {IERC721-getApproved}."
      },
      "isApprovedForAll(address,address)": {
        "details": "See {IERC721-isApprovedForAll}."
      },
      "name()": {
        "details": "See {IERC721Metadata-name}."
      },
      "owner()": {
        "details": "Returns the address of the current owner."
      },
      "ownerOf(uint256)": {
        "details": "See {IERC721-ownerOf}."
      },
      "renounceOwnership()": {
        "details": "Leaves the contract without owner. It will not be possible to call `onlyOwner` functions anymore. Can only be called by the current owner. NOTE: Renouncing ownership will leave the contract without an owner, thereby removing any functionality that is only available to the owner."
      },
      "safeTransferFrom(address,address,uint256)": {
        "details": "See {IERC721-safeTransferFrom}."
      },
      "safeTransferFrom(address,address,uint256,bytes)": {
        "details": "See {IERC721-safeTransferFrom}."
      },
      "setApprovalForAll(address,bool)": {
        "details": "See {IERC721-setApprovalForAll}."
      },
      "supportsInterface(bytes4)": {
        "details": "See {IERC165-supportsInterface}."
      },
      "symbol()": {
        "details": "See {IERC721Metadata-symbol}."
      },
      "tokenByIndex(uint256)": {
        "details": "See {IERC721Enumerable-tokenByIndex}."
      },
      "tokenOfOwnerByIndex(address,uint256)": {
        "details": "See {IERC721Enumerable-tokenOfOwnerByIndex}."
      },
      "tokenURI(uint256)": {
        "details": "See {IERC721Metadata-tokenURI}."
      },
      "totalSupply()": {
        "details": "See {IERC721Enumerable-totalSupply}."
      },
      "transferFrom(address,address,uint256)": {
        "details": "See {IERC721-transferFrom}."
      },
      "transferOwnership(address)": {
        "details": "Transfers ownership of the contract to a new account (`newOwner`). Can only be called by the current owner."
      }
    },
    "version": 1
  },
  "userdoc": {
    "kind": "user",
    "methods": {},
    "version": 1
  },
  "storageLayout": {
    "storage": [
      {
        "astId": 138,
        "contract": "contracts/CryptoDevs.sol:CryptoDevs",
        "label": "_name",
        "offset": 0,
        "slot": "0",
        "type": "t_string_storage"
      },
      {
        "astId": 140,
        "contract": "contracts/CryptoDevs.sol:CryptoDevs",
        "label": "_symbol",
        "offset": 0,
        "slot": "1",
        "type": "t_string_storage"
      },
      {
        "astId": 144,
        "contract": "contracts/CryptoDevs.sol:CryptoDevs",
        "label": "_owners",
        "offset": 0,
        "slot": "2",
        "type": "t_mapping(t_uint256,t_address)"
      },
      {
        "astId": 148,
        "contract": "contracts/CryptoDevs.sol:CryptoDevs",
        "label": "_balances",
        "offset": 0,
        "slot": "3",
        "type": "t_mapping(t_address,t_uint256)"
      },
      {
        "astId": 152,
        "contract": "contracts/CryptoDevs.sol:CryptoDevs",
        "label": "_tokenApprovals",
        "offset": 0,
        "slot": "4",
        "type": "t_mapping(t_uint256,t_address)"
      },
      {
        "astId": 158,
        "contract": "contracts/CryptoDevs.sol:CryptoDevs",
        "label": "_operatorApprovals",
        "offset": 0,
        "slot": "5",
        "type": "t_mapping(t_address,t_mapping(t_address,t_bool))"
      },
      {
        "astId": 1206,
        "contract": "contracts/CryptoDevs.sol:CryptoDevs",
        "label": "_ownedTokens",
        "offset": 0,
        "slot": "6",
        "type": "t_mapping(t_address,t_mapping(t_uint256,t_uint256))"
      },
      {
        "astId": 1210,
        "contract": "contracts/CryptoDevs.sol:CryptoDevs",
        "label": "_ownedTokensIndex",
        "offset": 0,
        "slot": "7",
        "type": "t_mapping(t_uint256,t_uint256)"
      },
      {
        "astId": 1213,
        "contract": "contracts/CryptoDevs.sol:CryptoDevs",
        "label": "_allTokens",
        "offset": 0,
        "slot": "8",
        "type": "t_array(t_uint256)dyn_storage"
      },
      {
        "astId": 1217,
        "contract": "contracts/CryptoDevs.sol:CryptoDevs",
        "label": "_allTokensIndex",
        "offset": 0,
        "slot": "9",
        "type": "t_mapping(t_uint256,t_uint256)"
      },
      {
        "astId": 7,
        "contract": "contracts/CryptoDevs.sol:CryptoDevs",
        "label": "_owner",
        "offset": 0,
        "slot": "10",
        "type": "t_address"
      },
      {
        "astId": 3042,
        "contract": "contracts/CryptoDevs.sol:CryptoDevs",
        "label": "_baseTokenURI",
        "offset": 0,
        "slot": "11",
        "type": "t_string_storage"
      },
      {
        "astId": 3045,
        "contract": "contracts/CryptoDevs.sol:CryptoDevs",
        "label": "_price",
        "offset": 0,
        "slot": "12",
        "type": "t_uint256"
      },
      {
        "astId": 3047,
        "contract": "contracts/CryptoDevs.sol:CryptoDevs",
        "label": "_paused",
        "offset": 0,
        "slot": "13",
        "type": "t_bool"
      },
      {
        "astId": 3050,
        "contract": "contracts/CryptoDevs.sol:CryptoDevs",
        "label": "maxTokenIds",
        "offset": 0,
        "slot": "14",
        "type": "t_uint256"
      },
      {
        "astId": 3052,
        "contract": "contracts/CryptoDevs.sol:CryptoDevs",
        "label": "tokenIds",
        "offset": 0,
        "slot": "15",
        "type": "t_uint256"
      },
      {
        "astId": 3055,
        "contract": "contracts/CryptoDevs.sol:CryptoDevs",
        "label": "whitelist",
        "offset": 0,
        "slot": "16",
        "type": "t_contract(IWhitelist)3270"
      },
      {
        "astId": 3057,
        "contract": "contracts/CryptoDevs.sol:CryptoDevs",
        "label": "presaleStarted",
        "offset": 20,
        "slot": "16",
        "type": "t_bool"
      },
      {
        "astId": 3059,
        "contract": "contracts/CryptoDevs.sol:CryptoDevs",
        "label": "presaleEnded",
        "offset": 0,
        "slot": "17",
        "type": "t_uint256"
      }
    ],
    "types": {
      "t_address": {
        "encoding": "inplace",
        "label": "address",
        "numberOfBytes": "20"
      },
      "t_array(t_uint256)dyn_storage": {
        "base": "t_uint256",
        "encoding": "dynamic_array",
        "label": "uint256[]",
        "numberOfBytes": "32"
      },
      "t_bool": {
        "encoding": "inplace",
        "label": "bool",
        "numberOfBytes": "1"
      },
      "t_contract(IWhitelist)3270": {
        "encoding": "inplace",
        "label": "contract IWhitelist",
        "numberOfBytes": "20"
      },
      "t_mapping(t_address,t_bool)": {
        "encoding": "mapping",
        "key": "t_address",
        "label": "mapping(address => bool)",
        "numberOfBytes": "32",
        "value": "t_bool"
      },
      "t_mapping(t_address,t_mapping(t_address,t_bool))": {
        "encoding": "mapping",
        "key": "t_address",
        "label": "mapping(address => mapping(address => bool))",
        "numberOfBytes": "32",
        "value": "t_mapping(t_address,t_bool)"
      },
      "t_mapping(t_address,t_mapping(t_uint256,t_uint256))": {
        "encoding": "mapping",
        "key": "t_address",
        "label": "mapping(address => mapping(uint256 => uint256))",
        "numberOfBytes": "32",
        "value": "t_mapping(t_uint256,t_uint256)"
      },
      "t_mapping(t_address,t_uint256)": {
        "encoding": "mapping",
        "key": "t_address",
        "label": "mapping(address => uint256)",
        "numberOfBytes": "32",
        "value": "t_uint256"
      },
      "t_mapping(t_uint256,t_address)": {
        "encoding": "mapping",
        "key": "t_uint256",
        "label": "mapping(uint256 => address)",
        "numberOfBytes": "32",
        "value": "t_address"
      },
      "t_mapping(t_uint256,t_uint256)": {
        "encoding": "mapping",
        "key": "t_uint256",
        "label": "mapping(uint256 => uint256)",
        "numberOfBytes": "32",
        "value": "t_uint256"
      },
      "t_string_storage": {
        "encoding": "bytes",
        "label": "string",
        "numberOfBytes": "32"
      },
      "t_uint256": {
        "encoding": "inplace",
        "label": "uint256",
        "numberOfBytes": "32"
      }
    }
  }
}